{
  "_format": "hh-sol-artifact-1",
  "contractName": "socialMedia",
  "sourceName": "contracts/socialMedia.sol",
  "abi": [
    {
      "inputs": [
        {
          "internalType": "uint256",
          "name": "index",
          "type": "uint256"
        }
      ],
      "name": "acceptFriendRequests",
      "outputs": [],
      "stateMutability": "nonpayable",
      "type": "function"
    },
    {
      "inputs": [
        {
          "internalType": "string",
          "name": "_profilePic",
          "type": "string"
        }
      ],
      "name": "changeProfilePicture",
      "outputs": [],
      "stateMutability": "nonpayable",
      "type": "function"
    },
    {
      "inputs": [
        {
          "internalType": "string",
          "name": "_userName",
          "type": "string"
        }
      ],
      "name": "changeUserName",
      "outputs": [],
      "stateMutability": "nonpayable",
      "type": "function"
    },
    {
      "inputs": [
        {
          "internalType": "uint256",
          "name": "allPostIndex",
          "type": "uint256"
        }
      ],
      "name": "deleteAPost",
      "outputs": [],
      "stateMutability": "nonpayable",
      "type": "function"
    },
    {
      "inputs": [
        {
          "internalType": "uint256",
          "name": "index",
          "type": "uint256"
        }
      ],
      "name": "deleteFriendrequest",
      "outputs": [],
      "stateMutability": "nonpayable",
      "type": "function"
    },
    {
      "inputs": [
        {
          "internalType": "string",
          "name": "comment",
          "type": "string"
        },
        {
          "internalType": "uint256",
          "name": "allPostIndex",
          "type": "uint256"
        }
      ],
      "name": "doAComent",
      "outputs": [],
      "stateMutability": "nonpayable",
      "type": "function"
    },
    {
      "inputs": [
        {
          "internalType": "uint256",
          "name": "allPostIndex",
          "type": "uint256"
        }
      ],
      "name": "doALike",
      "outputs": [],
      "stateMutability": "nonpayable",
      "type": "function"
    },
    {
      "inputs": [
        {
          "internalType": "string",
          "name": "_imageLink",
          "type": "string"
        }
      ],
      "name": "doAPost",
      "outputs": [],
      "stateMutability": "nonpayable",
      "type": "function"
    },
    {
      "inputs": [
        {
          "internalType": "string",
          "name": "_userName",
          "type": "string"
        },
        {
          "internalType": "string",
          "name": "_profilePic",
          "type": "string"
        }
      ],
      "name": "registerUser",
      "outputs": [],
      "stateMutability": "nonpayable",
      "type": "function"
    },
    {
      "inputs": [
        {
          "internalType": "string",
          "name": "_userName",
          "type": "string"
        }
      ],
      "name": "sendFriendRequest",
      "outputs": [],
      "stateMutability": "nonpayable",
      "type": "function"
    },
    {
      "inputs": [],
      "name": "allUsers",
      "outputs": [
        {
          "components": [
            {
              "internalType": "uint256",
              "name": "registrationNumber",
              "type": "uint256"
            },
            {
              "internalType": "string",
              "name": "userName",
              "type": "string"
            },
            {
              "internalType": "string",
              "name": "profilePic",
              "type": "string"
            },
            {
              "internalType": "address",
              "name": "userAddress",
              "type": "address"
            }
          ],
          "internalType": "struct socialMedia.userData[]",
          "name": "",
          "type": "tuple[]"
        }
      ],
      "stateMutability": "view",
      "type": "function"
    },
    {
      "inputs": [
        {
          "internalType": "string",
          "name": "_userName",
          "type": "string"
        }
      ],
      "name": "checkAlreadyFriends",
      "outputs": [
        {
          "internalType": "bool",
          "name": "",
          "type": "bool"
        }
      ],
      "stateMutability": "view",
      "type": "function"
    },
    {
      "inputs": [
        {
          "internalType": "uint256",
          "name": "friendRegistrationNumber",
          "type": "uint256"
        }
      ],
      "name": "checkFriendRequestAlreadySent",
      "outputs": [
        {
          "internalType": "bool",
          "name": "",
          "type": "bool"
        }
      ],
      "stateMutability": "view",
      "type": "function"
    },
    {
      "inputs": [],
      "name": "checkRegisteredReturnRegNum",
      "outputs": [
        {
          "internalType": "uint256",
          "name": "",
          "type": "uint256"
        }
      ],
      "stateMutability": "view",
      "type": "function"
    },
    {
      "inputs": [
        {
          "internalType": "string",
          "name": "_userName",
          "type": "string"
        }
      ],
      "name": "findUser",
      "outputs": [
        {
          "internalType": "uint256",
          "name": "",
          "type": "uint256"
        }
      ],
      "stateMutability": "view",
      "type": "function"
    },
    {
      "inputs": [
        {
          "internalType": "uint256",
          "name": "registration",
          "type": "uint256"
        }
      ],
      "name": "getOthersUserStruct",
      "outputs": [
        {
          "components": [
            {
              "internalType": "uint256",
              "name": "registrationNumber",
              "type": "uint256"
            },
            {
              "internalType": "string",
              "name": "userName",
              "type": "string"
            },
            {
              "internalType": "string",
              "name": "profilePic",
              "type": "string"
            },
            {
              "internalType": "address",
              "name": "userAddress",
              "type": "address"
            }
          ],
          "internalType": "struct socialMedia.userData",
          "name": "",
          "type": "tuple"
        }
      ],
      "stateMutability": "view",
      "type": "function"
    },
    {
      "inputs": [],
      "name": "getUserName",
      "outputs": [
        {
          "internalType": "string",
          "name": "",
          "type": "string"
        }
      ],
      "stateMutability": "view",
      "type": "function"
    },
    {
      "inputs": [
        {
          "internalType": "uint256",
          "name": "regNum",
          "type": "uint256"
        }
      ],
      "name": "getUserNameFromRegistrationNumber",
      "outputs": [
        {
          "internalType": "string",
          "name": "",
          "type": "string"
        }
      ],
      "stateMutability": "view",
      "type": "function"
    },
    {
      "inputs": [],
      "name": "seeAllPosts",
      "outputs": [
        {
          "components": [
            {
              "internalType": "uint256",
              "name": "registrationNumber",
              "type": "uint256"
            },
            {
              "internalType": "uint256",
              "name": "postNumber",
              "type": "uint256"
            },
            {
              "internalType": "uint256",
              "name": "likes",
              "type": "uint256"
            },
            {
              "internalType": "address[]",
              "name": "likedAddress",
              "type": "address[]"
            },
            {
              "internalType": "string",
              "name": "imageLink",
              "type": "string"
            },
            {
              "internalType": "string[]",
              "name": "comments",
              "type": "string[]"
            },
            {
              "internalType": "uint256",
              "name": "allPostIndex",
              "type": "uint256"
            }
          ],
          "internalType": "struct socialMedia.posts[]",
          "name": "",
          "type": "tuple[]"
        }
      ],
      "stateMutability": "view",
      "type": "function"
    },
    {
      "inputs": [
        {
          "internalType": "uint256",
          "name": "allPostIndex",
          "type": "uint256"
        }
      ],
      "name": "seeCommentOnPost",
      "outputs": [
        {
          "internalType": "string[]",
          "name": "",
          "type": "string[]"
        }
      ],
      "stateMutability": "view",
      "type": "function"
    },
    {
      "inputs": [],
      "name": "seeFriendRequests",
      "outputs": [
        {
          "internalType": "string[]",
          "name": "",
          "type": "string[]"
        }
      ],
      "stateMutability": "view",
      "type": "function"
    },
    {
      "inputs": [
        {
          "internalType": "uint256",
          "name": "allPostIndex",
          "type": "uint256"
        }
      ],
      "name": "seeLikesOnPost",
      "outputs": [
        {
          "internalType": "uint256",
          "name": "",
          "type": "uint256"
        }
      ],
      "stateMutability": "view",
      "type": "function"
    },
    {
      "inputs": [],
      "name": "seeMyfriends",
      "outputs": [
        {
          "internalType": "string[]",
          "name": "",
          "type": "string[]"
        }
      ],
      "stateMutability": "view",
      "type": "function"
    },
    {
      "inputs": [],
      "name": "seeMyPosts",
      "outputs": [
        {
          "components": [
            {
              "internalType": "uint256",
              "name": "registrationNumber",
              "type": "uint256"
            },
            {
              "internalType": "uint256",
              "name": "postNumber",
              "type": "uint256"
            },
            {
              "internalType": "uint256",
              "name": "likes",
              "type": "uint256"
            },
            {
              "internalType": "address[]",
              "name": "likedAddress",
              "type": "address[]"
            },
            {
              "internalType": "string",
              "name": "imageLink",
              "type": "string"
            },
            {
              "internalType": "string[]",
              "name": "comments",
              "type": "string[]"
            },
            {
              "internalType": "uint256",
              "name": "allPostIndex",
              "type": "uint256"
            }
          ],
          "internalType": "struct socialMedia.posts[]",
          "name": "",
          "type": "tuple[]"
        }
      ],
      "stateMutability": "view",
      "type": "function"
    },
    {
      "inputs": [
        {
          "internalType": "uint256",
          "name": "registrationNumber",
          "type": "uint256"
        }
      ],
      "name": "seeOthersFriends",
      "outputs": [
        {
          "internalType": "string[]",
          "name": "",
          "type": "string[]"
        }
      ],
      "stateMutability": "view",
      "type": "function"
    },
    {
      "inputs": [
        {
          "internalType": "uint256",
          "name": "friendsRegNum",
          "type": "uint256"
        }
      ],
      "name": "seeSpecificFriendsPost",
      "outputs": [
        {
          "components": [
            {
              "internalType": "uint256",
              "name": "registrationNumber",
              "type": "uint256"
            },
            {
              "internalType": "uint256",
              "name": "postNumber",
              "type": "uint256"
            },
            {
              "internalType": "uint256",
              "name": "likes",
              "type": "uint256"
            },
            {
              "internalType": "address[]",
              "name": "likedAddress",
              "type": "address[]"
            },
            {
              "internalType": "string",
              "name": "imageLink",
              "type": "string"
            },
            {
              "internalType": "string[]",
              "name": "comments",
              "type": "string[]"
            },
            {
              "internalType": "uint256",
              "name": "allPostIndex",
              "type": "uint256"
            }
          ],
          "internalType": "struct socialMedia.posts[]",
          "name": "",
          "type": "tuple[]"
        }
      ],
      "stateMutability": "view",
      "type": "function"
    },
    {
      "inputs": [],
      "name": "seeTotalFriends",
      "outputs": [
        {
          "internalType": "uint256",
          "name": "",
          "type": "uint256"
        }
      ],
      "stateMutability": "view",
      "type": "function"
    },
    {
      "inputs": [],
      "name": "totalNumberOfPosts",
      "outputs": [
        {
          "internalType": "uint256",
          "name": "",
          "type": "uint256"
        }
      ],
      "stateMutability": "view",
      "type": "function"
    }
  ],
  "bytecode": "608060405234801561001057600080fd5b50614521806100206000396000f3fe608060405234801561001057600080fd5b50600436106101c45760003560e01c80638be060a3116100f9578063b493aab211610097578063d800dd2311610071578063d800dd2314610505578063eb49179714610535578063f33ed03014610565578063fd5affd314610583576101c4565b8063b493aab2146104ad578063b734a689146104c9578063d6a47c99146104e7576101c4565b8063a5e737bd116100d3578063a5e737bd1461043b578063a7e641ef14610457578063aaa89fac14610473578063b44affd414610491576101c4565b80638be060a3146103cf5780639b0b67c4146103ed5780639c2e476d1461040b576101c4565b8063428378f711610166578063669c9f8f11610140578063669c9f8f1461034957806375a0b23b1461036557806376b79bf71461038157806388fc4d871461039f576101c4565b8063428378f7146102cb5780634918600a146102fb5780635737169014610319576101c4565b80632006b1c2116101a25780632006b1c21461021f57806323580a801461024f578063249121881461026b578063307f22ce1461029b576101c4565b8063097ef949146101c957806312958f1c146101e55780631d2e4afd14610203575b600080fd5b6101e360048036038101906101de919061326d565b61059f565b005b6101ed6108b7565b6040516101fa9190613335565b60405180910390f35b61021d60048036038101906102189190613357565b610a21565b005b6102396004803603810190610234919061326d565b610ba7565b60405161024691906133e8565b60405180910390f35b6102696004803603810190610264919061342f565b610c66565b005b6102856004803603810190610280919061342f565b610e75565b60405161029291906133e8565b60405180910390f35b6102b560048036038101906102b0919061342f565b610ed0565b6040516102c29190613568565b60405180910390f35b6102e560048036038101906102e0919061342f565b610ffb565b6040516102f2919061387b565b60405180910390f35b61030361128e565b60405161031091906139c9565b60405180910390f35b610333600480360381019061032e919061342f565b611471565b6040516103409190613a55565b60405180910390f35b610363600480360381019061035e919061326d565b61163d565b005b61037f600480360381019061037a919061342f565b61172b565b005b6103896119a0565b60405161039691906133e8565b60405180910390f35b6103b960048036038101906103b4919061342f565b6119c5565b6040516103c69190613568565b60405180910390f35b6103d7611ab1565b6040516103e491906133e8565b60405180910390f35b6103f5611b88565b6040516104029190613568565b60405180910390f35b6104256004803603810190610420919061326d565b611c79565b6040516104329190613a92565b60405180910390f35b6104556004803603810190610450919061326d565b611d56565b005b610471600480360381019061046c919061342f565b611e24565b005b61047b611ea6565b604051610488919061387b565b60405180910390f35b6104ab60048036038101906104a6919061326d565b61213e565b005b6104c760048036038101906104c29190613aad565b6121c4565b005b6104d1612393565b6040516104de919061387b565b60405180910390f35b6104ef612613565b6040516104fc91906133e8565b60405180910390f35b61051f600480360381019061051a919061342f565b612620565b60405161052c9190613a92565b60405180910390f35b61054f600480360381019061054a919061342f565b6126f9565b60405161055c9190613335565b60405180910390f35b61056d61283f565b60405161057a9190613568565b60405180910390f35b61059d6004803603810190610598919061342f565b612930565b005b60006105a9612acd565b905060006040518060e001604052808381526020016002600085815260200190815260200160002080549050815260200160008152602001600680548060200260200160405190810160405280929190818152602001828054801561066357602002820191906000526020600020905b8160009054906101000a900473ffffffffffffffffffffffffffffffffffffffff1673ffffffffffffffffffffffffffffffffffffffff1681526020019060010190808311610619575b505050505081526020018481526020016005805480602002602001604051908101604052809291908181526020016000905b828210156107415783829060005260206000200180546106b490613b38565b80601f01602080910402602001604051908101604052809291908181526020018280546106e090613b38565b801561072d5780601f106107025761010080835404028352916020019161072d565b820191906000526020600020905b81548152906001019060200180831161071057829003601f168201915b505050505081526020019060010190610695565b50505050815260200160018054905081525090506002600083815260200190815260200160002081908060018154018082558091505060019003906000526020600020906007020160009091909190915060008201518160000155602082015181600101556040820151816002015560608201518160030190805190602001906107cc929190612e80565b5060808201518160040190816107e29190613d15565b5060a08201518160050190805190602001906107ff929190612f0a565b5060c08201518160060155505060018190806001815401808255809150506001900390600052602060002090600702016000909190919091506000820151816000015560208201518160010155604082015181600201556060820151816003019080519060200190610872929190612e80565b5060808201518160040190816108889190613d15565b5060a08201518160050190805190602001906108a5929190612f0a565b5060c082015181600601555050505050565b606060005b600080549050811015610a0a57600081815481106108dd576108dc613de7565b5b906000526020600020906004020160030160009054906101000a900473ffffffffffffffffffffffffffffffffffffffff1673ffffffffffffffffffffffffffffffffffffffff163373ffffffffffffffffffffffffffffffffffffffff16036109f7576000818154811061095557610954613de7565b5b9060005260206000209060040201600101805461097190613b38565b80601f016020809104026020016040519081016040528092919081815260200182805461099d90613b38565b80156109ea5780601f106109bf576101008083540402835291602001916109ea565b820191906000526020600020905b8154815290600101906020018083116109cd57829003601f168201915b5050505050915050610a1e565b8080610a0290613e45565b9150506108bc565b506040518060200160405280600081525090505b90565b610a2a82612b8b565b610a69576040517f08c379a0000000000000000000000000000000000000000000000000000000008152600401610a6090613ed9565b60405180910390fd5b610a71612c3f565b15610ab1576040517f08c379a0000000000000000000000000000000000000000000000000000000008152600401610aa890613f45565b60405180910390fd5b600060405180608001604052806001600080549050610ad09190613f65565b81526020018481526020018381526020013373ffffffffffffffffffffffffffffffffffffffff168152509080600181540180825580915050600190039060005260206000209060040201600090919091909150600082015181600001556020820151816001019081610b439190613d15565b506040820151816002019081610b599190613d15565b5060608201518160030160006101000a81548173ffffffffffffffffffffffffffffffffffffffff021916908373ffffffffffffffffffffffffffffffffffffffff16021790555050505050565b600080600090505b600080549050811015610c5b5760008181548110610bd057610bcf613de7565b5b9060005260206000209060040201600101604051602001610bf19190614027565b6040516020818303038152906040528051906020012083604051602001610c18919061406f565b6040516020818303038152906040528051906020012003610c4857600181610c409190613f65565b915050610c61565b8080610c5390613e45565b915050610baf565b50600090505b919050565b6000610c70612acd565b905060046000828152602001908152602001600020600360008381526020019081526020016000208381548110610caa57610ca9613de7565b5b90600052602060002001908060018154018082558091505060019003906000526020600020016000909190919091509081610ce591906140b1565b506000600360008381526020019081526020016000208381548110610d0d57610d0c613de7565b5b906000526020600020018054610d2290613b38565b80601f0160208091040260200160405190810160405280929190818152602001828054610d4e90613b38565b8015610d9b5780601f10610d7057610100808354040283529160200191610d9b565b820191906000526020600020905b815481529060010190602001808311610d7e57829003601f168201915b505050505090506000610dad82610ba7565b905060046000828152602001908152602001600020610dcb846126f9565b908060018154018082558091505060019003906000526020600020016000909190919091509081610dfc9190613d15565b506040518060400160405280600881526020017f6163636570746564000000000000000000000000000000000000000000000000815250600360008581526020019081526020016000208581548110610e5857610e57613de7565b5b906000526020600020019081610e6e9190613d15565b5050505050565b600080610e8183612cf2565b90506000610e8e84612d21565b9050600260008381526020019081526020016000208181548110610eb557610eb4613de7565b5b90600052602060002090600702016002015492505050919050565b60606000610edd83612cf2565b90506000610eea84612d21565b9050600260008381526020019081526020016000208181548110610f1157610f10613de7565b5b9060005260206000209060070201600501805480602002602001604051908101604052809291908181526020016000905b82821015610fee578382906000526020600020018054610f6190613b38565b80601f0160208091040260200160405190810160405280929190818152602001828054610f8d90613b38565b8015610fda5780601f10610faf57610100808354040283529160200191610fda565b820191906000526020600020905b815481529060010190602001808311610fbd57829003601f168201915b505050505081526020019060010190610f42565b5050505092505050919050565b606060026000838152602001908152602001600020805480602002602001604051908101604052809291908181526020016000905b8282101561128357838290600052602060002090600702016040518060e0016040529081600082015481526020016001820154815260200160028201548152602001600382018054806020026020016040519081016040528092919081815260200182805480156110f657602002820191906000526020600020905b8160009054906101000a900473ffffffffffffffffffffffffffffffffffffffff1673ffffffffffffffffffffffffffffffffffffffff16815260200190600101908083116110ac575b5050505050815260200160048201805461110f90613b38565b80601f016020809104026020016040519081016040528092919081815260200182805461113b90613b38565b80156111885780601f1061115d57610100808354040283529160200191611188565b820191906000526020600020905b81548152906001019060200180831161116b57829003601f168201915b5050505050815260200160058201805480602002602001604051908101604052809291908181526020016000905b828210156112625783829060005260206000200180546111d590613b38565b80601f016020809104026020016040519081016040528092919081815260200182805461120190613b38565b801561124e5780601f106112235761010080835404028352916020019161124e565b820191906000526020600020905b81548152906001019060200180831161123157829003601f168201915b5050505050815260200190600101906111b6565b50505050815260200160068201548152505081526020019060010190611030565b505050509050919050565b60606000805480602002602001604051908101604052809291908181526020016000905b828210156114685783829060005260206000209060040201604051806080016040529081600082015481526020016001820180546112ef90613b38565b80601f016020809104026020016040519081016040528092919081815260200182805461131b90613b38565b80156113685780601f1061133d57610100808354040283529160200191611368565b820191906000526020600020905b81548152906001019060200180831161134b57829003601f168201915b5050505050815260200160028201805461138190613b38565b80601f01602080910402602001604051908101604052809291908181526020018280546113ad90613b38565b80156113fa5780601f106113cf576101008083540402835291602001916113fa565b820191906000526020600020905b8154815290600101906020018083116113dd57829003601f168201915b505050505081526020016003820160009054906101000a900473ffffffffffffffffffffffffffffffffffffffff1673ffffffffffffffffffffffffffffffffffffffff1673ffffffffffffffffffffffffffffffffffffffff1681525050815260200190600101906112b2565b50505050905090565b611479612f63565b60006001836114889190614199565b8154811061149957611498613de7565b5b9060005260206000209060040201604051806080016040529081600082015481526020016001820180546114cc90613b38565b80601f01602080910402602001604051908101604052809291908181526020018280546114f890613b38565b80156115455780601f1061151a57610100808354040283529160200191611545565b820191906000526020600020905b81548152906001019060200180831161152857829003601f168201915b5050505050815260200160028201805461155e90613b38565b80601f016020809104026020016040519081016040528092919081815260200182805461158a90613b38565b80156115d75780601f106115ac576101008083540402835291602001916115d7565b820191906000526020600020905b8154815290600101906020018083116115ba57829003601f168201915b505050505081526020016003820160009054906101000a900473ffffffffffffffffffffffffffffffffffffffff1673ffffffffffffffffffffffffffffffffffffffff1673ffffffffffffffffffffffffffffffffffffffff16815250509050919050565b600061164882610ba7565b9050611652612c3f565b611691576040517f08c379a000000000000000000000000000000000000000000000000000000000815260040161168890614219565b60405180910390fd5b61169a81612620565b156116da576040517f08c379a00000000000000000000000000000000000000000000000000000000081526004016116d190614285565b60405180910390fd5b600360008281526020019081526020016000206116f56108b7565b9080600181540180825580915050600190039060005260206000200160009091909190915090816117269190613d15565b505050565b61173481612d50565b15611774576040517f08c379a000000000000000000000000000000000000000000000000000000000815260040161176b906142f1565b60405180910390fd5b600061177f82612cf2565b9050600061178c83612d21565b905060016002600084815260200190815260200160002082815481106117b5576117b4613de7565b5b9060005260206000209060070201600201546117d19190613f65565b6002600084815260200190815260200160002082815481106117f6576117f5613de7565b5b9060005260206000209060070201600201819055506002600083815260200190815260200160002081815481106118305761182f613de7565b5b9060005260206000209060070201600301339080600181540180825580915050600190039060005260206000200160009091909190916101000a81548173ffffffffffffffffffffffffffffffffffffffff021916908373ffffffffffffffffffffffffffffffffffffffff1602179055506002600083815260200190815260200160002081815481106118c7576118c6613de7565b5b906000526020600020906007020160016002600085815260200190815260200160002083815481106118fc576118fb613de7565b5b9060005260206000209060070201600601548154811061191f5761191e613de7565b5b90600052602060002090600702016000820154816000015560018201548160010155600282015481600201556003820181600301908054611961929190612fa1565b50600482018160040190816119769190614327565b50600582018160050190805461198d929190612ff3565b5060068201548160060155905050505050565b6000600460006119ae612acd565b815260200190815260200160002080549050905090565b606060046000838152602001908152602001600020805480602002602001604051908101604052809291908181526020016000905b82821015611aa6578382906000526020600020018054611a1990613b38565b80601f0160208091040260200160405190810160405280929190818152602001828054611a4590613b38565b8015611a925780601f10611a6757610100808354040283529160200191611a92565b820191906000526020600020905b815481529060010190602001808311611a7557829003601f168201915b5050505050815260200190600101906119fa565b505050509050919050565b600080600090505b600080549050811015611b7f5760008181548110611ada57611ad9613de7565b5b906000526020600020906004020160030160009054906101000a900473ffffffffffffffffffffffffffffffffffffffff1673ffffffffffffffffffffffffffffffffffffffff163373ffffffffffffffffffffffffffffffffffffffff1603611b6c5760008181548110611b5257611b51613de7565b5b906000526020600020906004020160000154915050611b85565b8080611b7790613e45565b915050611ab9565b50600090505b90565b606060036000611b96612acd565b8152602001908152602001600020805480602002602001604051908101604052809291908181526020016000905b82821015611c70578382906000526020600020018054611be390613b38565b80601f0160208091040260200160405190810160405280929190818152602001828054611c0f90613b38565b8015611c5c5780601f10611c3157610100808354040283529160200191611c5c565b820191906000526020600020905b815481529060010190602001808311611c3f57829003601f168201915b505050505081526020019060010190611bc4565b50505050905090565b600080600090506000611c8a612acd565b90505b6004600082815260200190815260200160002080549050821015611d4a5783604051602001611cbc919061406f565b60405160208183030381529060405280519060200120600460008381526020019081526020016000208381548110611cf757611cf6613de7565b5b90600052602060002001604051602001611d119190614027565b6040516020818303038152906040528051906020012003611d3757600192505050611d51565b8180611d4290613e45565b925050611c8d565b6000925050505b919050565b611d5f81612b8b565b611d9e576040517f08c379a0000000000000000000000000000000000000000000000000000000008152600401611d9590613ed9565b60405180910390fd5b6000611da8612acd565b905060008111611ded576040517f08c379a0000000000000000000000000000000000000000000000000000000008152600401611de49061445b565b60405180910390fd5b8160008281548110611e0257611e01613de7565b5b90600052602060002090600402016001019081611e1f9190613d15565b505050565b6000611e2e612acd565b90506040518060400160405280600781526020017f64656c6574656400000000000000000000000000000000000000000000000000815250600360008381526020019081526020016000208381548110611e8b57611e8a613de7565b5b906000526020600020019081611ea19190613d15565b505050565b606060026000611eb4612acd565b8152602001908152602001600020805480602002602001604051908101604052809291908181526020016000905b8282101561213557838290600052602060002090600702016040518060e001604052908160008201548152602001600182015481526020016002820154815260200160038201805480602002602001604051908101604052809291908181526020018280548015611fa857602002820191906000526020600020905b8160009054906101000a900473ffffffffffffffffffffffffffffffffffffffff1673ffffffffffffffffffffffffffffffffffffffff1681526020019060010190808311611f5e575b50505050508152602001600482018054611fc190613b38565b80601f0160208091040260200160405190810160405280929190818152602001828054611fed90613b38565b801561203a5780601f1061200f5761010080835404028352916020019161203a565b820191906000526020600020905b81548152906001019060200180831161201d57829003601f168201915b5050505050815260200160058201805480602002602001604051908101604052809291908181526020016000905b8282101561211457838290600052602060002001805461208790613b38565b80601f01602080910402602001604051908101604052809291908181526020018280546120b390613b38565b80156121005780601f106120d557610100808354040283529160200191612100565b820191906000526020600020905b8154815290600101906020018083116120e357829003601f168201915b505050505081526020019060010190612068565b50505050815260200160068201548152505081526020019060010190611ee2565b50505050905090565b6000612148612acd565b90506000811161218d576040517f08c379a00000000000000000000000000000000000000000000000000000000081526004016121849061445b565b60405180910390fd5b81600082815481106121a2576121a1613de7565b5b906000526020600020906004020160020190816121bf9190613d15565b505050565b60006121cf82612cf2565b905060006121dc83612d21565b9050836040516020016121ef91906144a1565b60405160208183030381529060405293506122086108b7565b8460405160200161221a9291906144c7565b60405160208183030381529060405293506002600083815260200190815260200160002081815481106122505761224f613de7565b5b9060005260206000209060070201600501849080600181540180825580915050600190039060005260206000200160009091909190915090816122939190613d15565b506002600083815260200190815260200160002081815481106122b9576122b8613de7565b5b906000526020600020906007020160016002600085815260200190815260200160002083815481106122ee576122ed613de7565b5b9060005260206000209060070201600601548154811061231157612310613de7565b5b90600052602060002090600702016000820154816000015560018201548160010155600282015481600201556003820181600301908054612353929190612fa1565b50600482018160040190816123689190614327565b50600582018160050190805461237f929190612ff3565b506006820154816006015590505050505050565b60606001805480602002602001604051908101604052809291908181526020016000905b8282101561260a57838290600052602060002090600702016040518060e00160405290816000820154815260200160018201548152602001600282015481526020016003820180548060200260200160405190810160405280929190818152602001828054801561247d57602002820191906000526020600020905b8160009054906101000a900473ffffffffffffffffffffffffffffffffffffffff1673ffffffffffffffffffffffffffffffffffffffff1681526020019060010190808311612433575b5050505050815260200160048201805461249690613b38565b80601f01602080910402602001604051908101604052809291908181526020018280546124c290613b38565b801561250f5780601f106124e45761010080835404028352916020019161250f565b820191906000526020600020905b8154815290600101906020018083116124f257829003601f168201915b5050505050815260200160058201805480602002602001604051908101604052809291908181526020016000905b828210156125e957838290600052602060002001805461255c90613b38565b80601f016020809104026020016040519081016040528092919081815260200182805461258890613b38565b80156125d55780601f106125aa576101008083540402835291602001916125d5565b820191906000526020600020905b8154815290600101906020018083116125b857829003601f168201915b50505050508152602001906001019061253d565b505050508152602001600682015481525050815260200190600101906123b7565b50505050905090565b6000600180549050905090565b60008061262b6108b7565b905060005b60036000858152602001908152602001600020805490508110156126ed578160405160200161265f919061406f565b6040516020818303038152906040528051906020012060036000868152602001908152602001600020828154811061269a57612699613de7565b5b906000526020600020016040516020016126b49190614027565b60405160208183030381529060405280519060200120036126da576001925050506126f4565b80806126e590613e45565b915050612630565b5060009150505b919050565b606060005b600080549050811015612800576000818154811061271f5761271e613de7565b5b90600052602060002090600402016000015483036127ed576000818154811061274b5761274a613de7565b5b9060005260206000209060040201600101805461276790613b38565b80601f016020809104026020016040519081016040528092919081815260200182805461279390613b38565b80156127e05780601f106127b5576101008083540402835291602001916127e0565b820191906000526020600020905b8154815290600101906020018083116127c357829003601f168201915b505050505091505061283a565b80806127f890613e45565b9150506126fe565b506040518060400160405280600881526020017f4e6f74466f756e6400000000000000000000000000000000000000000000000081525090505b919050565b60606004600061284d612acd565b8152602001908152602001600020805480602002602001604051908101604052809291908181526020016000905b8282101561292757838290600052602060002001805461289a90613b38565b80601f01602080910402602001604051908101604052809291908181526020018280546128c690613b38565b80156129135780601f106128e857610100808354040283529160200191612913565b820191906000526020600020905b8154815290600101906020018083116128f657829003601f168201915b50505050508152602001906001019061287b565b50505050905090565b600061293a612acd565b9050600061294783612d21565b905060026000838152602001908152602001600020818154811061296e5761296d613de7565b5b9060005260206000209060070201600080820160009055600182016000905560028201600090556003820160006129a59190613050565b6004820160006129b59190613071565b6005820160006129c591906130b1565b600682016000905550506002600083815260200190815260200160002081815481106129f4576129f3613de7565b5b90600052602060002090600702016001600260008581526020019081526020016000208381548110612a2957612a28613de7565b5b90600052602060002090600702016006015481548110612a4c57612a4b613de7565b5b90600052602060002090600702016000820154816000015560018201548160010155600282015481600201556003820181600301908054612a8e929190612fa1565b5060048201816004019081612aa39190614327565b506005820181600501908054612aba929190612ff3565b5060068201548160060155905050505050565b600080600090505b600080549050811015612b825760008181548110612af657612af5613de7565b5b906000526020600020906004020160030160009054906101000a900473ffffffffffffffffffffffffffffffffffffffff1673ffffffffffffffffffffffffffffffffffffffff163373ffffffffffffffffffffffffffffffffffffffff1603612b6f57600181612b679190613f65565b915050612b88565b8080612b7a90613e45565b915050612ad5565b50600090505b90565b600080600090505b600080549050811015612c345760008181548110612bb457612bb3613de7565b5b9060005260206000209060040201600101604051602001612bd59190614027565b6040516020818303038152906040528051906020012083604051602001612bfc919061406f565b6040516020818303038152906040528051906020012003612c21576000915050612c3a565b8080612c2c90613e45565b915050612b93565b50600190505b919050565b600080600090505b600080549050811015612ce95760008181548110612c6857612c67613de7565b5b906000526020600020906004020160030160009054906101000a900473ffffffffffffffffffffffffffffffffffffffff1673ffffffffffffffffffffffffffffffffffffffff163373ffffffffffffffffffffffffffffffffffffffff1603612cd6576001915050612cef565b8080612ce190613e45565b915050612c47565b50600090505b90565b600060018281548110612d0857612d07613de7565b5b9060005260206000209060070201600001549050919050565b600060018281548110612d3757612d36613de7565b5b9060005260206000209060070201600101549050919050565b600080612d5c83612cf2565b90506000612d6984612d21565b905060005b600260008481526020019081526020016000208281548110612d9357612d92613de7565b5b906000526020600020906007020160030180549050811015612e73573373ffffffffffffffffffffffffffffffffffffffff16600260008581526020019081526020016000208381548110612deb57612dea613de7565b5b90600052602060002090600702016003018281548110612e0e57612e0d613de7565b5b9060005260206000200160009054906101000a900473ffffffffffffffffffffffffffffffffffffffff1673ffffffffffffffffffffffffffffffffffffffff1603612e605760019350505050612e7b565b8080612e6b90613e45565b915050612d6e565b506000925050505b919050565b828054828255906000526020600020908101928215612ef9579160200282015b82811115612ef85782518260006101000a81548173ffffffffffffffffffffffffffffffffffffffff021916908373ffffffffffffffffffffffffffffffffffffffff16021790555091602001919060010190612ea0565b5b509050612f0691906130d2565b5090565b828054828255906000526020600020908101928215612f52579160200282015b82811115612f51578251829081612f419190613d15565b5091602001919060010190612f2a565b5b509050612f5f91906130ef565b5090565b6040518060800160405280600081526020016060815260200160608152602001600073ffffffffffffffffffffffffffffffffffffffff1681525090565b828054828255906000526020600020908101928215612fe25760005260206000209182015b82811115612fe1578254825591600101919060010190612fc6565b5b509050612fef91906130d2565b5090565b82805482825590600052602060002090810192821561303f5760005260206000209182015b8281111561303e578282908161302e9190614327565b5091600101919060010190613018565b5b50905061304c91906130ef565b5090565b508054600082559060005260206000209081019061306e91906130d2565b50565b50805461307d90613b38565b6000825580601f1061308f57506130ae565b601f0160209004906000526020600020908101906130ad91906130d2565b5b50565b50805460008255906000526020600020908101906130cf91906130ef565b50565b5b808211156130eb5760008160009055506001016130d3565b5090565b5b8082111561310f57600081816131069190613071565b506001016130f0565b5090565b6000604051905090565b600080fd5b600080fd5b600080fd5b600080fd5b6000601f19601f8301169050919050565b7f4e487b7100000000000000000000000000000000000000000000000000000000600052604160045260246000fd5b61317a82613131565b810181811067ffffffffffffffff8211171561319957613198613142565b5b80604052505050565b60006131ac613113565b90506131b88282613171565b919050565b600067ffffffffffffffff8211156131d8576131d7613142565b5b6131e182613131565b9050602081019050919050565b82818337600083830152505050565b600061321061320b846131bd565b6131a2565b90508281526020810184848401111561322c5761322b61312c565b5b6132378482856131ee565b509392505050565b600082601f83011261325457613253613127565b5b81356132648482602086016131fd565b91505092915050565b6000602082840312156132835761328261311d565b5b600082013567ffffffffffffffff8111156132a1576132a0613122565b5b6132ad8482850161323f565b91505092915050565b600081519050919050565b600082825260208201905092915050565b60005b838110156132f05780820151818401526020810190506132d5565b60008484015250505050565b6000613307826132b6565b61331181856132c1565b93506133218185602086016132d2565b61332a81613131565b840191505092915050565b6000602082019050818103600083015261334f81846132fc565b905092915050565b6000806040838503121561336e5761336d61311d565b5b600083013567ffffffffffffffff81111561338c5761338b613122565b5b6133988582860161323f565b925050602083013567ffffffffffffffff8111156133b9576133b8613122565b5b6133c58582860161323f565b9150509250929050565b6000819050919050565b6133e2816133cf565b82525050565b60006020820190506133fd60008301846133d9565b92915050565b61340c816133cf565b811461341757600080fd5b50565b60008135905061342981613403565b92915050565b6000602082840312156134455761344461311d565b5b60006134538482850161341a565b91505092915050565b600081519050919050565b600082825260208201905092915050565b6000819050602082019050919050565b600082825260208201905092915050565b60006134a4826132b6565b6134ae8185613488565b93506134be8185602086016132d2565b6134c781613131565b840191505092915050565b60006134de8383613499565b905092915050565b6000602082019050919050565b60006134fe8261345c565b6135088185613467565b93508360208202850161351a85613478565b8060005b85811015613556578484038952815161353785826134d2565b9450613542836134e6565b925060208a0199505060018101905061351e565b50829750879550505050505092915050565b6000602082019050818103600083015261358281846134f3565b905092915050565b600081519050919050565b600082825260208201905092915050565b6000819050602082019050919050565b6135bf816133cf565b82525050565b600081519050919050565b600082825260208201905092915050565b6000819050602082019050919050565b600073ffffffffffffffffffffffffffffffffffffffff82169050919050565b600061361c826135f1565b9050919050565b61362c81613611565b82525050565b600061363e8383613623565b60208301905092915050565b6000602082019050919050565b6000613662826135c5565b61366c81856135d0565b9350613677836135e1565b8060005b838110156136a857815161368f8882613632565b975061369a8361364a565b92505060018101905061367b565b5085935050505092915050565b600082825260208201905092915050565b60006136d18261345c565b6136db81856136b5565b9350836020820285016136ed85613478565b8060005b85811015613729578484038952815161370a85826134d2565b9450613715836134e6565b925060208a019950506001810190506136f1565b50829750879550505050505092915050565b600060e08301600083015161375360008601826135b6565b50602083015161376660208601826135b6565b50604083015161377960408601826135b6565b50606083015184820360608601526137918282613657565b915050608083015184820360808601526137ab8282613499565b91505060a083015184820360a08601526137c582826136c6565b91505060c08301516137da60c08601826135b6565b508091505092915050565b60006137f1838361373b565b905092915050565b6000602082019050919050565b60006138118261358a565b61381b8185613595565b93508360208202850161382d856135a6565b8060005b85811015613869578484038952815161384a85826137e5565b9450613855836137f9565b925060208a01995050600181019050613831565b50829750879550505050505092915050565b600060208201905081810360008301526138958184613806565b905092915050565b600081519050919050565b600082825260208201905092915050565b6000819050602082019050919050565b60006080830160008301516138e160008601826135b6565b50602083015184820360208601526138f98282613499565b915050604083015184820360408601526139138282613499565b91505060608301516139286060860182613623565b508091505092915050565b600061393f83836138c9565b905092915050565b6000602082019050919050565b600061395f8261389d565b61396981856138a8565b93508360208202850161397b856138b9565b8060005b858110156139b757848403895281516139988582613933565b94506139a383613947565b925060208a0199505060018101905061397f565b50829750879550505050505092915050565b600060208201905081810360008301526139e38184613954565b905092915050565b6000608083016000830151613a0360008601826135b6565b5060208301518482036020860152613a1b8282613499565b91505060408301518482036040860152613a358282613499565b9150506060830151613a4a6060860182613623565b508091505092915050565b60006020820190508181036000830152613a6f81846139eb565b905092915050565b60008115159050919050565b613a8c81613a77565b82525050565b6000602082019050613aa76000830184613a83565b92915050565b60008060408385031215613ac457613ac361311d565b5b600083013567ffffffffffffffff811115613ae257613ae1613122565b5b613aee8582860161323f565b9250506020613aff8582860161341a565b9150509250929050565b7f4e487b7100000000000000000000000000000000000000000000000000000000600052602260045260246000fd5b60006002820490506001821680613b5057607f821691505b602082108103613b6357613b62613b09565b5b50919050565b60008190508160005260206000209050919050565b60006020601f8301049050919050565b600082821b905092915050565b600060088302613bcb7fffffffffffffffffffffffffffffffffffffffffffffffffffffffffffffffff82613b8e565b613bd58683613b8e565b95508019841693508086168417925050509392505050565b6000819050919050565b6000613c12613c0d613c08846133cf565b613bed565b6133cf565b9050919050565b6000819050919050565b613c2c83613bf7565b613c40613c3882613c19565b848454613b9b565b825550505050565b600090565b613c55613c48565b613c60818484613c23565b505050565b5b81811015613c8457613c79600082613c4d565b600181019050613c66565b5050565b601f821115613cc957613c9a81613b69565b613ca384613b7e565b81016020851015613cb2578190505b613cc6613cbe85613b7e565b830182613c65565b50505b505050565b600082821c905092915050565b6000613cec60001984600802613cce565b1980831691505092915050565b6000613d058383613cdb565b9150826002028217905092915050565b613d1e826132b6565b67ffffffffffffffff811115613d3757613d36613142565b5b613d418254613b38565b613d4c828285613c88565b600060209050601f831160018114613d7f5760008415613d6d578287015190505b613d778582613cf9565b865550613ddf565b601f198416613d8d86613b69565b60005b82811015613db557848901518255600182019150602085019450602081019050613d90565b86831015613dd25784890151613dce601f891682613cdb565b8355505b6001600288020188555050505b505050505050565b7f4e487b7100000000000000000000000000000000000000000000000000000000600052603260045260246000fd5b7f4e487b7100000000000000000000000000000000000000000000000000000000600052601160045260246000fd5b6000613e50826133cf565b91507fffffffffffffffffffffffffffffffffffffffffffffffffffffffffffffffff8203613e8257613e81613e16565b5b600182019050919050565b7f557365726e616d65206e6f7420617661696c61626c6500000000000000000000600082015250565b6000613ec36016836132c1565b9150613ece82613e8d565b602082019050919050565b60006020820190508181036000830152613ef281613eb6565b9050919050565b7f4164647265737320616c7265616479207573656420746f207265676973746572600082015250565b6000613f2f6020836132c1565b9150613f3a82613ef9565b602082019050919050565b60006020820190508181036000830152613f5e81613f22565b9050919050565b6000613f70826133cf565b9150613f7b836133cf565b9250828201905080821115613f9357613f92613e16565b5b92915050565b600081905092915050565b60008154613fb181613b38565b613fbb8186613f99565b94506001821660008114613fd65760018114613feb5761401e565b60ff198316865281151582028601935061401e565b613ff485613b69565b60005b8381101561401657815481890152600182019150602081019050613ff7565b838801955050505b50505092915050565b60006140338284613fa4565b915081905092915050565b6000614049826132b6565b6140538185613f99565b93506140638185602086016132d2565b80840191505092915050565b600061407b828461403e565b915081905092915050565b60008154905061409581613b38565b9050919050565b60008190508160005260206000209050919050565b8181036140bf575050614197565b6140c882614086565b67ffffffffffffffff8111156140e1576140e0613142565b5b6140eb8254613b38565b6140f6828285613c88565b6000601f8311600181146141255760008415614113578287015490505b61411d8582613cf9565b865550614190565b601f1984166141338761409c565b965061413e86613b69565b60005b8281101561416657848901548255600182019150600185019450602081019050614141565b86831015614183578489015461417f601f891682613cdb565b8355505b6001600288020188555050505b5050505050505b565b60006141a4826133cf565b91506141af836133cf565b92508282039050818111156141c7576141c6613e16565b5b92915050565b7f596f7520617265206e6f74207265676973747265640000000000000000000000600082015250565b60006142036015836132c1565b915061420e826141cd565b602082019050919050565b60006020820190508181036000830152614232816141f6565b9050919050565b7f416c72656164792073656e740000000000000000000000000000000000000000600082015250565b600061426f600c836132c1565b915061427a82614239565b602082019050919050565b6000602082019050818103600083015261429e81614262565b9050919050565b7f596f75206861766520616c7265616479206c696b656400000000000000000000600082015250565b60006142db6016836132c1565b91506142e6826142a5565b602082019050919050565b6000602082019050818103600083015261430a816142ce565b9050919050565b60008154905061432081613b38565b9050919050565b81810361433557505061440d565b61433e82614311565b67ffffffffffffffff81111561435757614356613142565b5b6143618254613b38565b61436c828285613c88565b6000601f83116001811461439b5760008415614389578287015490505b6143938582613cf9565b865550614406565b601f1984166143a987613b69565b96506143b486613b69565b60005b828110156143dc578489015482556001820191506001850194506020810190506143b7565b868310156143f957848901546143f5601f891682613cdb565b8355505b6001600288020188555050505b5050505050505b565b7f4e6f742072656769737465726564000000000000000000000000000000000000600082015250565b6000614445600e836132c1565b91506144508261440f565b602082019050919050565b6000602082019050818103600083015261447481614438565b9050919050565b7f203a200000000000000000000000000000000000000000000000000000000000815250565b60006144ac8261447b565b6003820191506144bc828461403e565b915081905092915050565b60006144d3828561403e565b91506144df828461403e565b9150819050939250505056fea2646970667358221220a723708a19a067550cfd27ba1c9458cbc6ef3db2f5b5a671b5706b190000f7de64736f6c63430008120033",
  "linkReferences": {},
  "deployedLinkReferences": {}
}