{
  "_format": "hh-sol-artifact-1",
  "contractName": "socialMedia",
  "sourceName": "contracts/socialMedia.sol",
  "abi": [
    {
      "inputs": [
        {
          "internalType": "uint256",
          "name": "index",
          "type": "uint256"
        }
      ],
      "name": "acceptFriendRequests",
      "outputs": [],
      "stateMutability": "nonpayable",
      "type": "function"
    },
    {
      "inputs": [],
      "name": "allUsers",
      "outputs": [
        {
          "components": [
            {
              "internalType": "uint256",
              "name": "registrationNumber",
              "type": "uint256"
            },
            {
              "internalType": "string",
              "name": "userName",
              "type": "string"
            },
            {
              "internalType": "string",
              "name": "profilePic",
              "type": "string"
            },
            {
              "internalType": "address",
              "name": "userAddress",
              "type": "address"
            }
          ],
          "internalType": "struct socialMedia.userData[]",
          "name": "",
          "type": "tuple[]"
        }
      ],
      "stateMutability": "view",
      "type": "function"
    },
    {
      "inputs": [
        {
          "internalType": "string",
          "name": "_profilePic",
          "type": "string"
        }
      ],
      "name": "changeProfilePicture",
      "outputs": [],
      "stateMutability": "nonpayable",
      "type": "function"
    },
    {
      "inputs": [
        {
          "internalType": "string",
          "name": "_userName",
          "type": "string"
        }
      ],
      "name": "changeUserName",
      "outputs": [],
      "stateMutability": "nonpayable",
      "type": "function"
    },
    {
      "inputs": [],
      "name": "checkRegisteredReturnRegNum",
      "outputs": [
        {
          "internalType": "uint256",
          "name": "",
          "type": "uint256"
        }
      ],
      "stateMutability": "view",
      "type": "function"
    },
    {
      "inputs": [
        {
          "internalType": "uint256",
          "name": "allPostIndex",
          "type": "uint256"
        }
      ],
      "name": "deleteAPost",
      "outputs": [],
      "stateMutability": "nonpayable",
      "type": "function"
    },
    {
      "inputs": [
        {
          "internalType": "uint256",
          "name": "index",
          "type": "uint256"
        }
      ],
      "name": "deleteFriendrequest",
      "outputs": [],
      "stateMutability": "nonpayable",
      "type": "function"
    },
    {
      "inputs": [
        {
          "internalType": "string",
          "name": "comment",
          "type": "string"
        },
        {
          "internalType": "uint256",
          "name": "allPostIndex",
          "type": "uint256"
        }
      ],
      "name": "doAComent",
      "outputs": [],
      "stateMutability": "nonpayable",
      "type": "function"
    },
    {
      "inputs": [
        {
          "internalType": "uint256",
          "name": "allPostIndex",
          "type": "uint256"
        }
      ],
      "name": "doALike",
      "outputs": [],
      "stateMutability": "nonpayable",
      "type": "function"
    },
    {
      "inputs": [
        {
          "internalType": "string",
          "name": "_imageLink",
          "type": "string"
        }
      ],
      "name": "doAPost",
      "outputs": [],
      "stateMutability": "nonpayable",
      "type": "function"
    },
    {
      "inputs": [
        {
          "internalType": "string",
          "name": "_userName",
          "type": "string"
        }
      ],
      "name": "findUser",
      "outputs": [
        {
          "internalType": "uint256",
          "name": "",
          "type": "uint256"
        }
      ],
      "stateMutability": "view",
      "type": "function"
    },
    {
      "inputs": [
        {
          "internalType": "uint256",
          "name": "registration",
          "type": "uint256"
        }
      ],
      "name": "getOthersUserStruct",
      "outputs": [
        {
          "components": [
            {
              "internalType": "uint256",
              "name": "registrationNumber",
              "type": "uint256"
            },
            {
              "internalType": "string",
              "name": "userName",
              "type": "string"
            },
            {
              "internalType": "string",
              "name": "profilePic",
              "type": "string"
            },
            {
              "internalType": "address",
              "name": "userAddress",
              "type": "address"
            }
          ],
          "internalType": "struct socialMedia.userData",
          "name": "",
          "type": "tuple"
        }
      ],
      "stateMutability": "view",
      "type": "function"
    },
    {
      "inputs": [],
      "name": "getUserName",
      "outputs": [
        {
          "internalType": "string",
          "name": "",
          "type": "string"
        }
      ],
      "stateMutability": "view",
      "type": "function"
    },
    {
      "inputs": [
        {
          "internalType": "uint256",
          "name": "regNum",
          "type": "uint256"
        }
      ],
      "name": "getUserNameFromRegistrationNumber",
      "outputs": [
        {
          "internalType": "string",
          "name": "",
          "type": "string"
        }
      ],
      "stateMutability": "view",
      "type": "function"
    },
    {
      "inputs": [
        {
          "internalType": "string",
          "name": "_userName",
          "type": "string"
        },
        {
          "internalType": "string",
          "name": "_profilePic",
          "type": "string"
        }
      ],
      "name": "registerUser",
      "outputs": [],
      "stateMutability": "nonpayable",
      "type": "function"
    },
    {
      "inputs": [],
      "name": "seeAllPosts",
      "outputs": [
        {
          "components": [
            {
              "internalType": "uint256",
              "name": "registrationNumber",
              "type": "uint256"
            },
            {
              "internalType": "uint256",
              "name": "postNumber",
              "type": "uint256"
            },
            {
              "internalType": "uint256",
              "name": "likes",
              "type": "uint256"
            },
            {
              "internalType": "address[]",
              "name": "likedAddress",
              "type": "address[]"
            },
            {
              "internalType": "string",
              "name": "imageLink",
              "type": "string"
            },
            {
              "internalType": "string[]",
              "name": "comments",
              "type": "string[]"
            },
            {
              "internalType": "uint256",
              "name": "allPostIndex",
              "type": "uint256"
            }
          ],
          "internalType": "struct socialMedia.posts[]",
          "name": "",
          "type": "tuple[]"
        }
      ],
      "stateMutability": "view",
      "type": "function"
    },
    {
      "inputs": [
        {
          "internalType": "uint256",
          "name": "allPostIndex",
          "type": "uint256"
        }
      ],
      "name": "seeCommentOnPost",
      "outputs": [
        {
          "internalType": "string[]",
          "name": "",
          "type": "string[]"
        }
      ],
      "stateMutability": "view",
      "type": "function"
    },
    {
      "inputs": [],
      "name": "seeFriendRequests",
      "outputs": [
        {
          "internalType": "string[]",
          "name": "",
          "type": "string[]"
        }
      ],
      "stateMutability": "view",
      "type": "function"
    },
    {
      "inputs": [
        {
          "internalType": "uint256",
          "name": "allPostIndex",
          "type": "uint256"
        }
      ],
      "name": "seeLikesOnPost",
      "outputs": [
        {
          "internalType": "uint256",
          "name": "",
          "type": "uint256"
        }
      ],
      "stateMutability": "view",
      "type": "function"
    },
    {
      "inputs": [],
      "name": "seeMyPosts",
      "outputs": [
        {
          "components": [
            {
              "internalType": "uint256",
              "name": "registrationNumber",
              "type": "uint256"
            },
            {
              "internalType": "uint256",
              "name": "postNumber",
              "type": "uint256"
            },
            {
              "internalType": "uint256",
              "name": "likes",
              "type": "uint256"
            },
            {
              "internalType": "address[]",
              "name": "likedAddress",
              "type": "address[]"
            },
            {
              "internalType": "string",
              "name": "imageLink",
              "type": "string"
            },
            {
              "internalType": "string[]",
              "name": "comments",
              "type": "string[]"
            },
            {
              "internalType": "uint256",
              "name": "allPostIndex",
              "type": "uint256"
            }
          ],
          "internalType": "struct socialMedia.posts[]",
          "name": "",
          "type": "tuple[]"
        }
      ],
      "stateMutability": "view",
      "type": "function"
    },
    {
      "inputs": [],
      "name": "seeMyfriends",
      "outputs": [
        {
          "internalType": "string[]",
          "name": "",
          "type": "string[]"
        }
      ],
      "stateMutability": "view",
      "type": "function"
    },
    {
      "inputs": [
        {
          "internalType": "uint256",
          "name": "friendsRegNum",
          "type": "uint256"
        }
      ],
      "name": "seeSpecificFriendsPost",
      "outputs": [
        {
          "components": [
            {
              "internalType": "uint256",
              "name": "registrationNumber",
              "type": "uint256"
            },
            {
              "internalType": "uint256",
              "name": "postNumber",
              "type": "uint256"
            },
            {
              "internalType": "uint256",
              "name": "likes",
              "type": "uint256"
            },
            {
              "internalType": "address[]",
              "name": "likedAddress",
              "type": "address[]"
            },
            {
              "internalType": "string",
              "name": "imageLink",
              "type": "string"
            },
            {
              "internalType": "string[]",
              "name": "comments",
              "type": "string[]"
            },
            {
              "internalType": "uint256",
              "name": "allPostIndex",
              "type": "uint256"
            }
          ],
          "internalType": "struct socialMedia.posts[]",
          "name": "",
          "type": "tuple[]"
        }
      ],
      "stateMutability": "view",
      "type": "function"
    },
    {
      "inputs": [],
      "name": "seeTotalFriends",
      "outputs": [
        {
          "internalType": "uint256",
          "name": "",
          "type": "uint256"
        }
      ],
      "stateMutability": "view",
      "type": "function"
    },
    {
      "inputs": [
        {
          "internalType": "string",
          "name": "_userName",
          "type": "string"
        }
      ],
      "name": "sendFriendRequest",
      "outputs": [],
      "stateMutability": "nonpayable",
      "type": "function"
    }
  ],
  "bytecode": "0x608060405234801561001057600080fd5b50613f21806100206000396000f3fe608060405234801561001057600080fd5b50600436106101585760003560e01c806376b79bf7116100c3578063b44affd41161007c578063b44affd4146103c5578063b493aab2146103e1578063b734a689146103fd578063eb4917971461041b578063f33ed0301461044b578063fd5affd31461046957610158565b806376b79bf7146103155780638be060a3146103335780639b0b67c414610351578063a5e737bd1461036f578063a7e641ef1461038b578063aaa89fac146103a757610158565b8063307f22ce11610115578063307f22ce1461022f578063428378f71461025f5780634918600a1461028f57806357371690146102ad578063669c9f8f146102dd57806375a0b23b146102f957610158565b8063097ef9491461015d57806312958f1c146101795780631d2e4afd146101975780632006b1c2146101b357806323580a80146101e357806324912188146101ff575b600080fd5b61017760048036038101906101729190613164565b610485565b005b6101816107ab565b60405161018e9190613235565b60405180910390f35b6101b160048036038101906101ac9190613257565b610916565b005b6101cd60048036038101906101c89190613164565b610aaa565b6040516101da91906132e8565b60405180910390f35b6101fd60048036038101906101f8919061332f565b610b6a565b005b6102196004803603810190610214919061332f565b610d92565b60405161022691906132e8565b60405180910390f35b6102496004803603810190610244919061332f565b610ded565b6040516102569190613468565b60405180910390f35b6102796004803603810190610274919061332f565b610f18565b604051610286919061377b565b60405180910390f35b6102976111ab565b6040516102a491906138c9565b60405180910390f35b6102c760048036038101906102c2919061332f565b61138e565b6040516102d49190613955565b60405180910390f35b6102f760048036038101906102f29190613164565b61155a565b005b610313600480360381019061030e919061332f565b61164f565b005b61031d6118cf565b60405161032a91906132e8565b60405180910390f35b61033b6118f4565b60405161034891906132e8565b60405180910390f35b6103596119cc565b6040516103669190613468565b60405180910390f35b61038960048036038101906103849190613164565b611abd565b005b6103a560048036038101906103a0919061332f565b611b92565b005b6103af611c1b565b6040516103bc919061377b565b60405180910390f35b6103df60048036038101906103da9190613164565b611eb3565b005b6103fb60048036038101906103f69190613977565b611f40565b005b6104056120d4565b604051610412919061377b565b60405180910390f35b6104356004803603810190610430919061332f565b612354565b6040516104429190613235565b60405180910390f35b61045361249b565b6040516104609190613468565b60405180910390f35b610483600480360381019061047e919061332f565b61258c565b005b600061048f612734565b905060006040518060e001604052808381526020016002600085815260200190815260200160002080549050815260200160008152602001600680548060200260200160405190810160405280929190818152602001828054801561054957602002820191906000526020600020905b8160009054906101000a900473ffffffffffffffffffffffffffffffffffffffff1673ffffffffffffffffffffffffffffffffffffffff16815260200190600101908083116104ff575b505050505081526020018481526020016005805480602002602001604051908101604052809291908181526020016000905b8282101561062757838290600052602060002001805461059a90613a02565b80601f01602080910402602001604051908101604052809291908181526020018280546105c690613a02565b80156106135780601f106105e857610100808354040283529160200191610613565b820191906000526020600020905b8154815290600101906020018083116105f657829003601f168201915b50505050508152602001906001019061057b565b50505050815260200160018054905081525090506002600083815260200190815260200160002081908060018154018082558091505060019003906000526020600020906007020160009091909190915060008201518160000155602082015181600101556040820151816002015560608201518160030190805190602001906106b2929190612bc5565b5060808201518160040190805190602001906106cf929190612c4f565b5060a08201518160050190805190602001906106ec929190612cd5565b5060c0820151816006015550506001819080600181540180825580915050600190039060005260206000209060070201600090919091909150600082015181600001556020820151816001015560408201518160020155606082015181600301908051906020019061075f929190612bc5565b50608082015181600401908051906020019061077c929190612c4f565b5060a0820151816005019080519060200190610799929190612cd5565b5060c082015181600601555050505050565b606060005b6000805490508110156108ff57600081815481106107d1576107d0613a34565b5b906000526020600020906004020160030160009054906101000a900473ffffffffffffffffffffffffffffffffffffffff1673ffffffffffffffffffffffffffffffffffffffff163373ffffffffffffffffffffffffffffffffffffffff1614156108ec576000818154811061084a57610849613a34565b5b9060005260206000209060040201600101805461086690613a02565b80601f016020809104026020016040519081016040528092919081815260200182805461089290613a02565b80156108df5780601f106108b4576101008083540402835291602001916108df565b820191906000526020600020905b8154815290600101906020018083116108c257829003601f168201915b5050505050915050610913565b80806108f790613a92565b9150506107b0565b506040518060200160405280600081525090505b90565b61091f826127f3565b61095e576040517f08c379a000000000000000000000000000000000000000000000000000000000815260040161095590613b27565b60405180910390fd5b6109666128a8565b156109a6576040517f08c379a000000000000000000000000000000000000000000000000000000000815260040161099d90613b93565b60405180910390fd5b6000604051806080016040528060016000805490506109c59190613bb3565b81526020018481526020018381526020013373ffffffffffffffffffffffffffffffffffffffff168152509080600181540180825580915050600190039060005260206000209060040201600090919091909150600082015181600001556020820151816001019080519060200190610a3f929190612c4f565b506040820151816002019080519060200190610a5c929190612c4f565b5060608201518160030160006101000a81548173ffffffffffffffffffffffffffffffffffffffff021916908373ffffffffffffffffffffffffffffffffffffffff16021790555050505050565b600080600090505b600080549050811015610b5f5760008181548110610ad357610ad2613a34565b5b9060005260206000209060040201600101604051602001610af49190613ca8565b6040516020818303038152906040528051906020012083604051602001610b1b9190613cf0565b604051602081830303815290604052805190602001201415610b4c57600181610b449190613bb3565b915050610b65565b8080610b5790613a92565b915050610ab2565b50600090505b919050565b6000610b74612734565b905060046000828152602001908152602001600020600360008381526020019081526020016000208381548110610bae57610bad613a34565b5b9060005260206000200190806001815401808255809150506001900390600052602060002001600090919091909150908054610be990613a02565b610bf4929190612d35565b506000600360008381526020019081526020016000208381548110610c1c57610c1b613a34565b5b906000526020600020018054610c3190613a02565b80601f0160208091040260200160405190810160405280929190818152602001828054610c5d90613a02565b8015610caa5780601f10610c7f57610100808354040283529160200191610caa565b820191906000526020600020905b815481529060010190602001808311610c8d57829003601f168201915b505050505090506000610cbc82610aaa565b905060046000828152602001908152602001600020610cda84612354565b908060018154018082558091505060019003906000526020600020016000909190919091509080519060200190610d12929190612c4f565b506040518060400160405280600881526020017f6163636570746564000000000000000000000000000000000000000000000000815250600360008581526020019081526020016000208581548110610d6e57610d6d613a34565b5b906000526020600020019080519060200190610d8b929190612c4f565b5050505050565b600080610d9e8361295c565b90506000610dab8461298b565b9050600260008381526020019081526020016000208181548110610dd257610dd1613a34565b5b90600052602060002090600702016002015492505050919050565b60606000610dfa8361295c565b90506000610e078461298b565b9050600260008381526020019081526020016000208181548110610e2e57610e2d613a34565b5b9060005260206000209060070201600501805480602002602001604051908101604052809291908181526020016000905b82821015610f0b578382906000526020600020018054610e7e90613a02565b80601f0160208091040260200160405190810160405280929190818152602001828054610eaa90613a02565b8015610ef75780601f10610ecc57610100808354040283529160200191610ef7565b820191906000526020600020905b815481529060010190602001808311610eda57829003601f168201915b505050505081526020019060010190610e5f565b5050505092505050919050565b606060026000838152602001908152602001600020805480602002602001604051908101604052809291908181526020016000905b828210156111a057838290600052602060002090600702016040518060e00160405290816000820154815260200160018201548152602001600282015481526020016003820180548060200260200160405190810160405280929190818152602001828054801561101357602002820191906000526020600020905b8160009054906101000a900473ffffffffffffffffffffffffffffffffffffffff1673ffffffffffffffffffffffffffffffffffffffff1681526020019060010190808311610fc9575b5050505050815260200160048201805461102c90613a02565b80601f016020809104026020016040519081016040528092919081815260200182805461105890613a02565b80156110a55780601f1061107a576101008083540402835291602001916110a5565b820191906000526020600020905b81548152906001019060200180831161108857829003601f168201915b5050505050815260200160058201805480602002602001604051908101604052809291908181526020016000905b8282101561117f5783829060005260206000200180546110f290613a02565b80601f016020809104026020016040519081016040528092919081815260200182805461111e90613a02565b801561116b5780601f106111405761010080835404028352916020019161116b565b820191906000526020600020905b81548152906001019060200180831161114e57829003601f168201915b5050505050815260200190600101906110d3565b50505050815260200160068201548152505081526020019060010190610f4d565b505050509050919050565b60606000805480602002602001604051908101604052809291908181526020016000905b8282101561138557838290600052602060002090600402016040518060800160405290816000820154815260200160018201805461120c90613a02565b80601f016020809104026020016040519081016040528092919081815260200182805461123890613a02565b80156112855780601f1061125a57610100808354040283529160200191611285565b820191906000526020600020905b81548152906001019060200180831161126857829003601f168201915b5050505050815260200160028201805461129e90613a02565b80601f01602080910402602001604051908101604052809291908181526020018280546112ca90613a02565b80156113175780601f106112ec57610100808354040283529160200191611317565b820191906000526020600020905b8154815290600101906020018083116112fa57829003601f168201915b505050505081526020016003820160009054906101000a900473ffffffffffffffffffffffffffffffffffffffff1673ffffffffffffffffffffffffffffffffffffffff1673ffffffffffffffffffffffffffffffffffffffff1681525050815260200190600101906111cf565b50505050905090565b611396612dc2565b60006001836113a59190613d07565b815481106113b6576113b5613a34565b5b9060005260206000209060040201604051806080016040529081600082015481526020016001820180546113e990613a02565b80601f016020809104026020016040519081016040528092919081815260200182805461141590613a02565b80156114625780601f1061143757610100808354040283529160200191611462565b820191906000526020600020905b81548152906001019060200180831161144557829003601f168201915b5050505050815260200160028201805461147b90613a02565b80601f01602080910402602001604051908101604052809291908181526020018280546114a790613a02565b80156114f45780601f106114c9576101008083540402835291602001916114f4565b820191906000526020600020905b8154815290600101906020018083116114d757829003601f168201915b505050505081526020016003820160009054906101000a900473ffffffffffffffffffffffffffffffffffffffff1673ffffffffffffffffffffffffffffffffffffffff1673ffffffffffffffffffffffffffffffffffffffff16815250509050919050565b600061156582610aaa565b905061156f6128a8565b6115ae576040517f08c379a00000000000000000000000000000000000000000000000000000000081526004016115a590613d87565b60405180910390fd5b6115b7816129ba565b156115f7576040517f08c379a00000000000000000000000000000000000000000000000000000000081526004016115ee90613df3565b60405180910390fd5b600360008281526020019081526020016000206116126107ab565b90806001815401808255809150506001900390600052602060002001600090919091909150908051906020019061164a929190612c4f565b505050565b61165881612a94565b15611698576040517f08c379a000000000000000000000000000000000000000000000000000000000815260040161168f90613e5f565b60405180910390fd5b60006116a38261295c565b905060006116b08361298b565b905060016002600084815260200190815260200160002082815481106116d9576116d8613a34565b5b9060005260206000209060070201600201546116f59190613bb3565b60026000848152602001908152602001600020828154811061171a57611719613a34565b5b90600052602060002090600702016002018190555060026000838152602001908152602001600020818154811061175457611753613a34565b5b9060005260206000209060070201600301339080600181540180825580915050600190039060005260206000200160009091909190916101000a81548173ffffffffffffffffffffffffffffffffffffffff021916908373ffffffffffffffffffffffffffffffffffffffff1602179055506002600083815260200190815260200160002081815481106117eb576117ea613a34565b5b906000526020600020906007020160016002600085815260200190815260200160002083815481106118205761181f613a34565b5b9060005260206000209060070201600601548154811061184357611842613a34565b5b90600052602060002090600702016000820154816000015560018201548160010155600282015481600201556003820181600301908054611885929190612e00565b50600482018160040190805461189a90613a02565b6118a5929190612e52565b5060058201816005019080546118bc929190612edf565b5060068201548160060155905050505050565b6000600460006118dd612734565b815260200190815260200160002080549050905090565b600080600090505b6000805490508110156119c3576000818154811061191d5761191c613a34565b5b906000526020600020906004020160030160009054906101000a900473ffffffffffffffffffffffffffffffffffffffff1673ffffffffffffffffffffffffffffffffffffffff163373ffffffffffffffffffffffffffffffffffffffff1614156119b0576000818154811061199657611995613a34565b5b9060005260206000209060040201600001549150506119c9565b80806119bb90613a92565b9150506118fc565b50600090505b90565b6060600360006119da612734565b8152602001908152602001600020805480602002602001604051908101604052809291908181526020016000905b82821015611ab4578382906000526020600020018054611a2790613a02565b80601f0160208091040260200160405190810160405280929190818152602001828054611a5390613a02565b8015611aa05780601f10611a7557610100808354040283529160200191611aa0565b820191906000526020600020905b815481529060010190602001808311611a8357829003601f168201915b505050505081526020019060010190611a08565b50505050905090565b611ac6816127f3565b611b05576040517f08c379a0000000000000000000000000000000000000000000000000000000008152600401611afc90613b27565b60405180910390fd5b6000611b0f612734565b905060008111611b54576040517f08c379a0000000000000000000000000000000000000000000000000000000008152600401611b4b90613ecb565b60405180910390fd5b8160008281548110611b6957611b68613a34565b5b90600052602060002090600402016001019080519060200190611b8d929190612c4f565b505050565b6000611b9c612734565b90506040518060400160405280600781526020017f64656c6574656400000000000000000000000000000000000000000000000000815250600360008381526020019081526020016000208381548110611bf957611bf8613a34565b5b906000526020600020019080519060200190611c16929190612c4f565b505050565b606060026000611c29612734565b8152602001908152602001600020805480602002602001604051908101604052809291908181526020016000905b82821015611eaa57838290600052602060002090600702016040518060e001604052908160008201548152602001600182015481526020016002820154815260200160038201805480602002602001604051908101604052809291908181526020018280548015611d1d57602002820191906000526020600020905b8160009054906101000a900473ffffffffffffffffffffffffffffffffffffffff1673ffffffffffffffffffffffffffffffffffffffff1681526020019060010190808311611cd3575b50505050508152602001600482018054611d3690613a02565b80601f0160208091040260200160405190810160405280929190818152602001828054611d6290613a02565b8015611daf5780601f10611d8457610100808354040283529160200191611daf565b820191906000526020600020905b815481529060010190602001808311611d9257829003601f168201915b5050505050815260200160058201805480602002602001604051908101604052809291908181526020016000905b82821015611e89578382906000526020600020018054611dfc90613a02565b80601f0160208091040260200160405190810160405280929190818152602001828054611e2890613a02565b8015611e755780601f10611e4a57610100808354040283529160200191611e75565b820191906000526020600020905b815481529060010190602001808311611e5857829003601f168201915b505050505081526020019060010190611ddd565b50505050815260200160068201548152505081526020019060010190611c57565b50505050905090565b6000611ebd612734565b905060008111611f02576040517f08c379a0000000000000000000000000000000000000000000000000000000008152600401611ef990613ecb565b60405180910390fd5b8160008281548110611f1757611f16613a34565b5b90600052602060002090600402016002019080519060200190611f3b929190612c4f565b505050565b6000611f4b8261295c565b90506000611f588361298b565b9050600260008381526020019081526020016000208181548110611f7f57611f7e613a34565b5b906000526020600020906007020160050184908060018154018082558091505060019003906000526020600020016000909190919091509080519060200190611fc9929190612c4f565b50600260008381526020019081526020016000208181548110611fef57611fee613a34565b5b9060005260206000209060070201600160026000858152602001908152602001600020838154811061202457612023613a34565b5b9060005260206000209060070201600601548154811061204757612046613a34565b5b90600052602060002090600702016000820154816000015560018201548160010155600282015481600201556003820181600301908054612089929190612e00565b50600482018160040190805461209e90613a02565b6120a9929190612e52565b5060058201816005019080546120c0929190612edf565b506006820154816006015590505050505050565b60606001805480602002602001604051908101604052809291908181526020016000905b8282101561234b57838290600052602060002090600702016040518060e0016040529081600082015481526020016001820154815260200160028201548152602001600382018054806020026020016040519081016040528092919081815260200182805480156121be57602002820191906000526020600020905b8160009054906101000a900473ffffffffffffffffffffffffffffffffffffffff1673ffffffffffffffffffffffffffffffffffffffff1681526020019060010190808311612174575b505050505081526020016004820180546121d790613a02565b80601f016020809104026020016040519081016040528092919081815260200182805461220390613a02565b80156122505780601f1061222557610100808354040283529160200191612250565b820191906000526020600020905b81548152906001019060200180831161223357829003601f168201915b5050505050815260200160058201805480602002602001604051908101604052809291908181526020016000905b8282101561232a57838290600052602060002001805461229d90613a02565b80601f01602080910402602001604051908101604052809291908181526020018280546122c990613a02565b80156123165780601f106122eb57610100808354040283529160200191612316565b820191906000526020600020905b8154815290600101906020018083116122f957829003601f168201915b50505050508152602001906001019061227e565b505050508152602001600682015481525050815260200190600101906120f8565b50505050905090565b606060005b60008054905081101561245c576000818154811061237a57612379613a34565b5b90600052602060002090600402016000015483141561244957600081815481106123a7576123a6613a34565b5b906000526020600020906004020160010180546123c390613a02565b80601f01602080910402602001604051908101604052809291908181526020018280546123ef90613a02565b801561243c5780601f106124115761010080835404028352916020019161243c565b820191906000526020600020905b81548152906001019060200180831161241f57829003601f168201915b5050505050915050612496565b808061245490613a92565b915050612359565b506040518060400160405280600881526020017f4e6f74466f756e6400000000000000000000000000000000000000000000000081525090505b919050565b6060600460006124a9612734565b8152602001908152602001600020805480602002602001604051908101604052809291908181526020016000905b828210156125835783829060005260206000200180546124f690613a02565b80601f016020809104026020016040519081016040528092919081815260200182805461252290613a02565b801561256f5780601f106125445761010080835404028352916020019161256f565b820191906000526020600020905b81548152906001019060200180831161255257829003601f168201915b5050505050815260200190600101906124d7565b50505050905090565b6000612596612734565b905060006125a38361298b565b90506002600083815260200190815260200160002081815481106125ca576125c9613a34565b5b9060005260206000209060070201600080820160009055600182016000905560028201600090556003820160006126019190612f47565b6004820160006126119190612f68565b6005820160006126219190612fa8565b600682016000905550506002600083815260200190815260200160002081815481106126505761264f613a34565b5b9060005260206000209060070201600160026000858152602001908152602001600020838154811061268557612684613a34565b5b906000526020600020906007020160060154815481106126a8576126a7613a34565b5b906000526020600020906007020160008201548160000155600182015481600101556002820154816002015560038201816003019080546126ea929190612e00565b5060048201816004019080546126ff90613a02565b61270a929190612e52565b506005820181600501908054612721929190612edf565b5060068201548160060155905050505050565b600080600090505b6000805490508110156127ea576000818154811061275d5761275c613a34565b5b906000526020600020906004020160030160009054906101000a900473ffffffffffffffffffffffffffffffffffffffff1673ffffffffffffffffffffffffffffffffffffffff163373ffffffffffffffffffffffffffffffffffffffff1614156127d7576001816127cf9190613bb3565b9150506127f0565b80806127e290613a92565b91505061273c565b50600090505b90565b600080600090505b60008054905081101561289d576000818154811061281c5761281b613a34565b5b906000526020600020906004020160010160405160200161283d9190613ca8565b60405160208183030381529060405280519060200120836040516020016128649190613cf0565b60405160208183030381529060405280519060200120141561288a5760009150506128a3565b808061289590613a92565b9150506127fb565b50600190505b919050565b600080600090505b60008054905081101561295357600081815481106128d1576128d0613a34565b5b906000526020600020906004020160030160009054906101000a900473ffffffffffffffffffffffffffffffffffffffff1673ffffffffffffffffffffffffffffffffffffffff163373ffffffffffffffffffffffffffffffffffffffff161415612940576001915050612959565b808061294b90613a92565b9150506128b0565b50600090505b90565b60006001828154811061297257612971613a34565b5b9060005260206000209060070201600001549050919050565b6000600182815481106129a1576129a0613a34565b5b9060005260206000209060070201600101549050919050565b6000806129c56107ab565b905060005b6003600085815260200190815260200160002080549050811015612a8857816040516020016129f99190613cf0565b60405160208183030381529060405280519060200120600360008681526020019081526020016000208281548110612a3457612a33613a34565b5b90600052602060002001604051602001612a4e9190613ca8565b604051602081830303815290604052805190602001201415612a7557600192505050612a8f565b8080612a8090613a92565b9150506129ca565b5060009150505b919050565b600080612aa08361295c565b90506000612aad8461298b565b905060005b600260008481526020019081526020016000208281548110612ad757612ad6613a34565b5b906000526020600020906007020160030180549050811015612bb8573373ffffffffffffffffffffffffffffffffffffffff16600260008581526020019081526020016000208381548110612b2f57612b2e613a34565b5b90600052602060002090600702016003018281548110612b5257612b51613a34565b5b9060005260206000200160009054906101000a900473ffffffffffffffffffffffffffffffffffffffff1673ffffffffffffffffffffffffffffffffffffffff161415612ba55760019350505050612bc0565b8080612bb090613a92565b915050612ab2565b506000925050505b919050565b828054828255906000526020600020908101928215612c3e579160200282015b82811115612c3d5782518260006101000a81548173ffffffffffffffffffffffffffffffffffffffff021916908373ffffffffffffffffffffffffffffffffffffffff16021790555091602001919060010190612be5565b5b509050612c4b9190612fc9565b5090565b828054612c5b90613a02565b90600052602060002090601f016020900481019282612c7d5760008555612cc4565b82601f10612c9657805160ff1916838001178555612cc4565b82800160010185558215612cc4579182015b82811115612cc3578251825591602001919060010190612ca8565b5b509050612cd19190612fc9565b5090565b828054828255906000526020600020908101928215612d24579160200282015b82811115612d23578251829080519060200190612d13929190612c4f565b5091602001919060010190612cf5565b5b509050612d319190612fe6565b5090565b828054612d4190613a02565b90600052602060002090601f016020900481019282612d635760008555612db1565b82601f10612d745780548555612db1565b82800160010185558215612db157600052602060002091601f016020900482015b82811115612db0578254825591600101919060010190612d95565b5b509050612dbe9190612fc9565b5090565b6040518060800160405280600081526020016060815260200160608152602001600073ffffffffffffffffffffffffffffffffffffffff1681525090565b828054828255906000526020600020908101928215612e415760005260206000209182015b82811115612e40578254825591600101919060010190612e25565b5b509050612e4e9190612fc9565b5090565b828054612e5e90613a02565b90600052602060002090601f016020900481019282612e805760008555612ece565b82601f10612e915780548555612ece565b82800160010185558215612ece57600052602060002091601f016020900482015b82811115612ecd578254825591600101919060010190612eb2565b5b509050612edb9190612fc9565b5090565b828054828255906000526020600020908101928215612f365760005260206000209182015b82811115612f35578282908054612f1a90613a02565b612f25929190612e52565b5091600101919060010190612f04565b5b509050612f439190612fe6565b5090565b5080546000825590600052602060002090810190612f659190612fc9565b50565b508054612f7490613a02565b6000825580601f10612f865750612fa5565b601f016020900490600052602060002090810190612fa49190612fc9565b5b50565b5080546000825590600052602060002090810190612fc69190612fe6565b50565b5b80821115612fe2576000816000905550600101612fca565b5090565b5b808211156130065760008181612ffd9190612f68565b50600101612fe7565b5090565b6000604051905090565b600080fd5b600080fd5b600080fd5b600080fd5b6000601f19601f8301169050919050565b7f4e487b7100000000000000000000000000000000000000000000000000000000600052604160045260246000fd5b61307182613028565b810181811067ffffffffffffffff821117156130905761308f613039565b5b80604052505050565b60006130a361300a565b90506130af8282613068565b919050565b600067ffffffffffffffff8211156130cf576130ce613039565b5b6130d882613028565b9050602081019050919050565b82818337600083830152505050565b6000613107613102846130b4565b613099565b90508281526020810184848401111561312357613122613023565b5b61312e8482856130e5565b509392505050565b600082601f83011261314b5761314a61301e565b5b813561315b8482602086016130f4565b91505092915050565b60006020828403121561317a57613179613014565b5b600082013567ffffffffffffffff81111561319857613197613019565b5b6131a484828501613136565b91505092915050565b600081519050919050565b600082825260208201905092915050565b60005b838110156131e75780820151818401526020810190506131cc565b838111156131f6576000848401525b50505050565b6000613207826131ad565b61321181856131b8565b93506132218185602086016131c9565b61322a81613028565b840191505092915050565b6000602082019050818103600083015261324f81846131fc565b905092915050565b6000806040838503121561326e5761326d613014565b5b600083013567ffffffffffffffff81111561328c5761328b613019565b5b61329885828601613136565b925050602083013567ffffffffffffffff8111156132b9576132b8613019565b5b6132c585828601613136565b9150509250929050565b6000819050919050565b6132e2816132cf565b82525050565b60006020820190506132fd60008301846132d9565b92915050565b61330c816132cf565b811461331757600080fd5b50565b60008135905061332981613303565b92915050565b60006020828403121561334557613344613014565b5b60006133538482850161331a565b91505092915050565b600081519050919050565b600082825260208201905092915050565b6000819050602082019050919050565b600082825260208201905092915050565b60006133a4826131ad565b6133ae8185613388565b93506133be8185602086016131c9565b6133c781613028565b840191505092915050565b60006133de8383613399565b905092915050565b6000602082019050919050565b60006133fe8261335c565b6134088185613367565b93508360208202850161341a85613378565b8060005b85811015613456578484038952815161343785826133d2565b9450613442836133e6565b925060208a0199505060018101905061341e565b50829750879550505050505092915050565b6000602082019050818103600083015261348281846133f3565b905092915050565b600081519050919050565b600082825260208201905092915050565b6000819050602082019050919050565b6134bf816132cf565b82525050565b600081519050919050565b600082825260208201905092915050565b6000819050602082019050919050565b600073ffffffffffffffffffffffffffffffffffffffff82169050919050565b600061351c826134f1565b9050919050565b61352c81613511565b82525050565b600061353e8383613523565b60208301905092915050565b6000602082019050919050565b6000613562826134c5565b61356c81856134d0565b9350613577836134e1565b8060005b838110156135a857815161358f8882613532565b975061359a8361354a565b92505060018101905061357b565b5085935050505092915050565b600082825260208201905092915050565b60006135d18261335c565b6135db81856135b5565b9350836020820285016135ed85613378565b8060005b85811015613629578484038952815161360a85826133d2565b9450613615836133e6565b925060208a019950506001810190506135f1565b50829750879550505050505092915050565b600060e08301600083015161365360008601826134b6565b50602083015161366660208601826134b6565b50604083015161367960408601826134b6565b50606083015184820360608601526136918282613557565b915050608083015184820360808601526136ab8282613399565b91505060a083015184820360a08601526136c582826135c6565b91505060c08301516136da60c08601826134b6565b508091505092915050565b60006136f1838361363b565b905092915050565b6000602082019050919050565b60006137118261348a565b61371b8185613495565b93508360208202850161372d856134a6565b8060005b85811015613769578484038952815161374a85826136e5565b9450613755836136f9565b925060208a01995050600181019050613731565b50829750879550505050505092915050565b600060208201905081810360008301526137958184613706565b905092915050565b600081519050919050565b600082825260208201905092915050565b6000819050602082019050919050565b60006080830160008301516137e160008601826134b6565b50602083015184820360208601526137f98282613399565b915050604083015184820360408601526138138282613399565b91505060608301516138286060860182613523565b508091505092915050565b600061383f83836137c9565b905092915050565b6000602082019050919050565b600061385f8261379d565b61386981856137a8565b93508360208202850161387b856137b9565b8060005b858110156138b757848403895281516138988582613833565b94506138a383613847565b925060208a0199505060018101905061387f565b50829750879550505050505092915050565b600060208201905081810360008301526138e38184613854565b905092915050565b600060808301600083015161390360008601826134b6565b506020830151848203602086015261391b8282613399565b915050604083015184820360408601526139358282613399565b915050606083015161394a6060860182613523565b508091505092915050565b6000602082019050818103600083015261396f81846138eb565b905092915050565b6000806040838503121561398e5761398d613014565b5b600083013567ffffffffffffffff8111156139ac576139ab613019565b5b6139b885828601613136565b92505060206139c98582860161331a565b9150509250929050565b7f4e487b7100000000000000000000000000000000000000000000000000000000600052602260045260246000fd5b60006002820490506001821680613a1a57607f821691505b60208210811415613a2e57613a2d6139d3565b5b50919050565b7f4e487b7100000000000000000000000000000000000000000000000000000000600052603260045260246000fd5b7f4e487b7100000000000000000000000000000000000000000000000000000000600052601160045260246000fd5b6000613a9d826132cf565b91507fffffffffffffffffffffffffffffffffffffffffffffffffffffffffffffffff821415613ad057613acf613a63565b5b600182019050919050565b7f557365726e616d65206e6f7420617661696c61626c6500000000000000000000600082015250565b6000613b116016836131b8565b9150613b1c82613adb565b602082019050919050565b60006020820190508181036000830152613b4081613b04565b9050919050565b7f4164647265737320616c7265616479207573656420746f207265676973746572600082015250565b6000613b7d6020836131b8565b9150613b8882613b47565b602082019050919050565b60006020820190508181036000830152613bac81613b70565b9050919050565b6000613bbe826132cf565b9150613bc9836132cf565b9250827fffffffffffffffffffffffffffffffffffffffffffffffffffffffffffffffff03821115613bfe57613bfd613a63565b5b828201905092915050565b600081905092915050565b60008190508160005260206000209050919050565b60008154613c3681613a02565b613c408186613c09565b94506001821660008114613c5b5760018114613c6c57613c9f565b60ff19831686528186019350613c9f565b613c7585613c14565b60005b83811015613c9757815481890152600182019150602081019050613c78565b838801955050505b50505092915050565b6000613cb48284613c29565b915081905092915050565b6000613cca826131ad565b613cd48185613c09565b9350613ce48185602086016131c9565b80840191505092915050565b6000613cfc8284613cbf565b915081905092915050565b6000613d12826132cf565b9150613d1d836132cf565b925082821015613d3057613d2f613a63565b5b828203905092915050565b7f596f7520617265206e6f74207265676973747265640000000000000000000000600082015250565b6000613d716015836131b8565b9150613d7c82613d3b565b602082019050919050565b60006020820190508181036000830152613da081613d64565b9050919050565b7f416c72656164792073656e740000000000000000000000000000000000000000600082015250565b6000613ddd600c836131b8565b9150613de882613da7565b602082019050919050565b60006020820190508181036000830152613e0c81613dd0565b9050919050565b7f596f75206861766520616c7265616479206c696b656400000000000000000000600082015250565b6000613e496016836131b8565b9150613e5482613e13565b602082019050919050565b60006020820190508181036000830152613e7881613e3c565b9050919050565b7f4e6f742072656769737465726564000000000000000000000000000000000000600082015250565b6000613eb5600e836131b8565b9150613ec082613e7f565b602082019050919050565b60006020820190508181036000830152613ee481613ea8565b905091905056fea26469706673582212205cb983bf8d18b1608f5d85355202415aa3bc219b7ddcf208d4cc008f1f6992ea64736f6c63430008090033",
  "linkReferences": {},
  "deployedLinkReferences": {}
}